:100000000C94A6030C941E190C94F3180C94C818A5
:100010000C949D180C9472180C9447180C941C188E
:100020000C94F1170C94D7030C94D7030C94D703BA
:100030000C94D7030C94D7030C94D7030C94D703D8
:100040000C94D7030C94D7030C94D7030C94D703C8
:100050000C94D7030C94D7030C94D7030C94A717D4
:100060000C94D7030C9473190C9449190C94D7036E
:100070000C94D7030C94D7030C94D7030C94D70398
:100080000C94D7030C94D7030C94D7030C94D70388
:100090000C94D7030C94D7030C94D7030C94D70378
:1000A0000C94D7030C94D7030C94D7030C94D70368
:1000B0000C94D7030C94D7030C94D7030C94D70358
:1000C0000C94D7030C94D7030C94D7030C94D70348
:1000D0000C94D7030C94D7030C94D7030C94D70338
:1000E0000C94D70308000000BE922449123EABAA2C
:1000F000AA2ABECDCCCC4C3E00000080BEABAAAA42
:10010000AA3E00000000BF000000803F0000000089
:1001100000084178D3BB4387D1133D190E3CC3BDC2
:100120004282AD2B3E68EC8276BED98FE1A93E4C6F
:1001300080EFFFBE01C4FF7F3F00000000000C9471
:100140002F060C94AF0C0C9435060C94EF090C940C
:100150007E070C9419070C9460070C9405070C9407
:1001600027060C9448090C946A070C94FA050C9421
:1001700013060C941D060C9419060C943D070C9460
:1001800023070C94F4050C946A090C94770D0C94D5
:100190000C0E0C94A2090C94FE050C940F070C9401
:1001A00088070C9433070C942D0B0C9400070C94C7
:1001B00047070C94F9060C9451070C940F060C9405
:1001C0009A080C9402060C942B070C9409060C94C4
:1001D000A9190C9439060C94D30C0C9474070C9444
:1001E00034060C9406060C940C090C94A00D0C9487
:1001F00021060C94610D0C945C090C942B060C9454
:1002000092070C94390900000000963007772C61A2
:100210000EEEBA51099919C46D078FF46A7035A5AD
:1002200063E9A395649E3288DB0EA4B8DC791EE9ED
:10023000D5E088D9D2972B4CB609BD7CB17E072D6D
:10024000B8E7911DBF906410B71DF220B06A4871E5
:10025000B9F3DE41BE847DD4DA1AEBE4DD6D51B52D
:10026000D4F4C785D38356986C13C0A86B647AF90D
:1002700062FDECC9658A4F5C0114D96C0663633D6D
:100280000FFAF50D088DC8206E3B5E10694CE441F5
:1002900060D5727167A2D1E4033C47D4044BFD855D
:1002A0000DD26BB50AA5FAA8B5356C98B242D6C97D
:1002B000BBDB40F9BCACE36CD832755CDF45CF0DDD
:1002C000D6DC593DD1ABAC30D9263A00DE51805155
:1002D000D7C81661D0BFB5F4B42123C4B3569995DD
:1002E000BACF0FA5BDB89EB802280888055FB2D95D
:1002F0000CC624E90BB1877C6F2F114C6858AB1DDD
:1003000061C13D2D66B69041DC760671DB01BC20F3
:10031000D2982A10D5EF8985B1711FB5B606A5E42C
:10032000BF9F33D4B8E8A2C9077834F9000F8EA86C
:10033000099618980EE1BB0D6A7F2D3D6D08976CEC
:100340006491015C63E6F4516B6B62616C1CD830A4
:1003500065854E0062F2ED95066C7BA5011BC1F42C
:10036000088257C40FF5C6D9B06550E9B712EAB88C
:10037000BE8B7C88B9FCDF1DDD62492DDA15F37C6C
:10038000D38C654CD4FB5861B24DCE51B53A740054
:10039000BCA3E230BBD441A5DF4AD795D83D6DC49C
:1003A000D1A4FBF4D6D36AE96943FCD96E344688FC
:1003B00067ADD0B860DA732D0444E51D03335F4C9C
:1003C0000AAAC97C0DDD3C710550AA410227101014
:1003D0000BBE86200CC925B56857B3856F2009D49C
:1003E00066B99FE461CE0EF9DE5E98C9D9292298DC
:1003F000D0B0B4A8D7C7173DB359810DB42E3B5C1C
:10040000BDB7AD6CBAC02083B8EDB6B3BF9A0CE2ED
:10041000B6039AD2B1743947D5EAAF77D29D152683
:10042000DB048316DC73120B63E3843B64943E6A43
:100430006D0DA85A6A7A0BCF0EE49DFF099327AE83
:10044000000AB19E077D44930FF0D2A3088768F29B
:10045000011EFEC206695D5762F7CB676580713683
:100460006C19E7066B6E761BD4FEE02BD3895A7AA3
:10047000DA10CC4ADD676FDFB9F9F9EFBE8E43BE03
:10048000B717D58EB060E8A3D6D67E93D1A1C4C2EB
:10049000D83852F2DF4FF167BBD16757BCA6DD06F3
:1004A000B53F4B36B248DA2B0DD84C1B0AAFF64A93
:1004B0000336607A0441C3EF60DF55DF67A8EF8E33
:1004C0006E3179BE69468CB361CB1A8366BCA0D20B
:1004D0006F2536E2685295770CCC03470BBBB916F3
:1004E00002222F260555BE3BBAC5280BBDB2925A33
:1004F000B42B046AB35CA7FFD7C231CFD0B58B9EB3
:10050000D92C1DAEDE5BB0C2649B26F263EC9CA3CB
:100510006A750A936D02A906099C3F360EEB856742
:10052000077213570005824ABF95147AB8E2AE2BC2
:10053000B17B381BB60C9B8ED2920DBED5E5B7EFC2
:10054000DC7C21DFDB0BD4D2D38642E2D4F1F8B3DA
:10055000DD686E83DA1FCD16BE815B26B9F6E177C2
:10056000B06F7747B718E65A0888706A0FFFCA3B22
:1005700006665C0B0111FF9E658F69AE62F8D3FFC2
:100580006B6145CF6C1678E20AA0EED20DD754838A
:10059000044EC2B30339612667A7F71660D04D47F2
:1005A0006949DB776E3E4A6AD1AEDC5AD6D9660B12
:1005B000DF40F03BD83753AEBCA9C59EBBDE7FCF32
:1005C000B247E9FFB5301CF2BDBD8AC2BACA30934A
:1005D000B353A6A3B4240536D0BA9306D7CD295772
:1005E000DE54BF67D9232E7A66B3B84A61C4021BB2
:1005F000685D942B6F2A37BE0BB4A18E0CC31BDF32
:10060000055A8DEF022D4041610D4243610D0303F8
:100610000C0E0505A00D6060770D6161770D70709F
:1006200000008083D30CF0F0AF0C00002100240008
:1006300027002A002D0030003300010100000401D2
:1006400007010A0100002200250028002B002E00CF
:100650003100340002010000050108010B01000017
:1006600020002300260029002C002F00320000016A
:100670000000030106010901050505050705080835
:100680000808020202020A0A08080404040401011C
:100690000101010101010303030303030303040731
:1006A00007070C0C0C0C0C0C0C0C020202020606C8
:1006B0000606060606060B0B0B0B0B0B0B0B0102BB
:1006C0001020200808102040102040800201020164
:1006D000080402010102040810204080804020101C
:1006E0000804020180040201804020100804020175
:1006F00008040201010204081020408001020408DD
:100700001020408000000A0B02090C0D0E080703A0
:1007100004010000000000000000000000000000D4
:1007200000000000000000000000000000000000C9
:100730001211100000000000000000000000000086
:1007400000000000000000000000A91911241FBED5
:10075000CFEFD1E2DEBFCDBF00E00CBF14E0A0E0E0
:10076000B2E0EEE5FFE400E00BBF02C007900D929F
:10077000A431B107D9F720E1A4E1B4E001C01D9292
:10078000A03BB207E1F713E0C6EAD3E000E006C001
:1007900021970109802FFE010E944B24C53AD10701
:1007A00080E00807A9F70E941D1A0C94AD270C944D
:1007B0000000CF92DF92EF92FF920F931F93CF939F
:1007C000DF938C01F0905D0FCF2DD0E060915E0F34
:1007D00070E08091330F9091340F019709F042C07F
:1007E000072E000C880B990B0E944D2220E030E070
:1007F00040E251E40E94D9216B017C01BE01DD0F72
:10080000880B990B0E944D229B01AC01C701B601D8
:100810000E9468212091400F3091410F4091420F7A
:100820005091430F0E9468210130110591F420E09E
:1008300030E040E151E40E94852320E030E040EACE
:1008400050E40E94D92120E030E040E052E40E94D0
:100850006821DF91CF911F910F91FF90EF90DF9072
:10086000CF900895DC2FCC27CC27DF776C2B7D2B06
:1008700090E080E00E944B222DEC3CEC4CEC5DE3E0
:100880000E948523F7FEC6CF9058C4CF8F929F92C7
:10089000AF92BF92CF92DF92EF92FF9260915B0F87
:1008A000E62EF12C60915C0F8091330F9091340F04
:1008B000019709F041C070E090E080E00E944D2275
:1008C00020E030E040E251E40E94D9214B015C017C
:1008D000B701FF0C880B990B0E944D229B01AC01C4
:1008E000C501B4010E9468212091440F3091450F49
:1008F0004091460F5091470F0E9468216B017C0187
:1009000020E030E0A9010E94D42187FD27C020E02B
:1009100030E048EC52E4C701B6010E94FD221816EF
:100920000CF1C701B601FF90EF90DF90CF90BF9020
:10093000AF909F908F90089560915B0F70915C0FC6
:1009400076276727762790E080E00E944B222DECE7
:100950003CEC4CEC5DE30E948523C6CFC12CD12C2E
:100960007601DFCFC12CD12C88ECE82E82E4F82E62
:10097000D8CF4F925F926F927F928F929F92AF9259
:10098000BF92CF92DF92EF92FF9281E090E00E94BF
:10099000D9036B017C010E9446044B015C0120E0FD
:1009A00030E048E852E4C701B6010E9467212AE915
:1009B00039E949E95FE30E9485232B013C0120E0EE
:1009C00030E044E752E4C701B6010E9468219B0170
:1009D000AC01C301B2010E9468212B013C0122E15C
:1009E00033E840EC5DE3C501B4010E9485239B011F
:1009F000AC01C301B2010E94682120E030E040E078
:100A00005FE30E9485232B013C0120E030E040EAB7
:100A100052E40E94FD2287FDA8C021E133E243E0B9
:100A200050E4C701B6010E94852329E134E849E278
:100A300052E40E9467212B013C0126E13BE442E2A3
:100A400051E4C501B4010E9485239B01AC01C3019F
:100A5000B2010E9468212B013C0128E436E246E6FF
:100A60005EE3C701B6010E948523A50194010E949F
:100A700085239B01AC01C301B2010E9467212B01B8
:100A80003C0120EE3FE040EE5BE3C701B6010E946F
:100A90008523A70196010E9485239B01AC01C30118
:100AA000B2010E9467212B013C0128EF37E840E6A4
:100AB0005DE3C501B4010E948523A50194010E9454
:100AC00085239B01AC01C301B2010E9467212B0168
:100AD0003C012CEA3DE041EA5AE3C701B6010E941D
:100AE0008523A70196010E948523A50194010E94F8
:100AF00085239B01AC01C301B2010E9468212B0137
:100B00003C0128EC3FE84FE55AE3C701B6010E94DB
:100B10008523A50194010E948523A50194010E94CB
:100B200085239B01AC01C301B2010E9468212B0106
:100B30003C0121EF3BE845E056E3C701B6010E94C6
:100B40008523A70196010E948523A50194010E9497
:100B50008523A50194010E9485239B01AC01C3015B
:100B6000B2010E9467212B013C0120E030E040E00F
:100B700052E4C301B2010E94672120E030E040EA64
:100B800050E40E94852320E030E040E151E40E94DF
:100B9000D921FF90EF90DF90CF90BF90AF909F90C2
:100BA0008F907F906F905F904F9008958150823129
:100BB00008F05AC0E82FF0E08827EE51FA4F8F4F27
:100BC0000C944B2402060606F405FA05FE053406CD
:100BD00009060F06130619061D06210627062B0611
:100BE00034062F0635063906809180008F77809372
:100BF00080000895809180008F7DF9CF80918000E2
:100C0000877FF5CF84B58F7784BD089584B58F7DB8
:100C1000FBCF8091B0008F778093B00008958091D2
:100C2000B0008F7DF9CF809190008F7780939000F6
:100C30000895809190008F7DF9CF80919000877FFB
:100C4000F5CF8091A0008F778093A00008958091C8
:100C5000A0008F7DF9CF8091A000877FF5CF809194
:100C600020018F77809320010895809120018F7D4E
:100C7000F9CF80912001877FF5CFCF93DF93282F85
:100C800030E0F901EC5FF84F8491F901E254F94F3B
:100C9000D491F901E858F94FC491CC23A1F0811106
:100CA0000E94D605EC2FF0E0EE0FFF1FE25AF94F3D
:100CB000A591B491EC91ED2381E090E009F480E0FE
:100CC000DF91CF91089580E090E0FACF1F93CF930A
:100CD000DF93282F30E0F901EC5FF84F8491F901A0
:100CE000E254F94FD491F901E858F94FC491CC235B
:100CF000A9F0162F81110E94D605EC2FF0E0EE0F1F
:100D0000FF1FEC5BF94FA591B4918FB7F894EC916C
:100D1000111108C0D095DE23DC938FBFDF91CF91F6
:100D20001F910895DE2BF8CFCF93DF9390E0FC0165
:100D3000E254F94F24918858994FFC0184918823FB
:100D4000D1F090E0880F991FFC01E65DF94FA59165
:100D5000B491FC01EC5BF94FC591D491623071F410
:100D60009FB7F8943C91822F809583238C93E881E0
:100D70002E2B28839FBFDF91CF9108958FB7F894D2
:100D8000EC912E2B2C938FBFF6CFCF93DF93EC01FA
:100D900061E088E00E949406209731F460E088E0EA
:100DA000DF91CF910C946606CF3FD10511F461E03D
:100DB000F6CFECE0F7E0E491E150E23108F0B2C0A8
:100DC000F0E08827E951F94F8F4F0C944B24F90636
:100DD000000705070F071907920723072B0733079B
:100DE0003D074707510760076A07920774077E07A8
:100DF000880784B5806884BDC7BDDF91CF91089511
:100E000084B5806284BDC8BDF8CF809180008068C1
:100E100080938000D0938900C0938800EECF8091AA
:100E20008000806280938000D0938B00C0938A0002
:100E3000E4CF80918000886080938000D0938D0003
:100E4000C0938C00DACF8091B00080688093B000AE
:100E5000C093B300D2CF8091B00080628093B00085
:100E6000C093B400CACF80919000806880939000B6
:100E7000D0939900C0939800C0CF80919000806279
:100E800080939000D0939B00C0939A00B6CF80913E
:100E90009000886080939000D0939D00C0939C0048
:100EA000ACCF8091A00080688093A0008091A000CA
:100EB0008F7B8093A000D093A900C093A8009DCF02
:100EC0008091A00080628093A000D093AB00C0937B
:100ED000AA0093CF8091A00088608093A000D09357
:100EE000AD00C093AC0089CF8091200180688093D1
:100EF0002001D0932901C09328017FCF8091200148
:100F0000806280932001D0932B01C0932A0175CF7A
:100F100080912001886080932001D0932D01C0939F
:100F20002C016BCFC038D1050CF041CF37CF3FB784
:100F3000F89480918F0E9091900EA091910EB091A7
:100F4000920E26B5A89B05C02F3F19F00196A11D52
:100F5000B11D3FBFBA2FA92F982F8827BC01CD0103
:100F6000620F711D811D911D42E0660F771F881F62
:100F7000991F4A95D1F708958F929F92AF92BF9291
:100F8000EF92FF920F931F93CF93880F991F880FB3
:100F9000991F8C01005A104FC0E0F12CE12C0E94E7
:100FA00097074B015C018091320F0E943D0601972B
:100FB000A9F40E949707AB01BC01481959096A09B5
:100FC0007B0980913C0F90913D0FB0E0A0E0841729
:100FD0009507A607B70738F7CFEF6EC00E949707AF
:100FE0004B015C018091320F0E943D06892BA1F4D8
:100FF0000E949707AB01BC01481959096A097B098E
:1010000080913C0F90913D0FB0E0A0E084179507D0
:10101000A607B70738F7E0CF0E949707F801E05618
:10102000FF4F681979098A099B096083718382835C
:1010300093830E9497074B015C018091320F0E94BD
:101040003D060197A1F40E949707AB01BC01481926
:1010500059096A097B0980913C0F90913D0FB0E0DE
:10106000A0E084179507A607B70738F7B5CF0E9409
:101070009707DC01CB0188199909AA09BB09F80176
:1010800081939193A193B1938F0180903E0F9090A3
:101090003F0FB12CA12C21E088169906AA06BB06A9
:1010A00008F020E0CC0FC22BFFEFEF1AFF0A88E018
:1010B000E816F10409F073CF8C2FCF911F910F9197
:1010C000FF90EF90BF90AF909F908F9008958F9278
:1010D0009F92AF92BF92CF92DF92EF92FF926B01FD
:1010E0007C010E9497074B015C01C114D104E1040B
:1010F000F104B9F00E949707681979098A099B09D8
:10110000683E73408105910580F321E0C21AD10841
:10111000E108F10888EE880E83E0981EA11CB11C3E
:10112000E4CFFF90EF90DF90CF90BF90AF909F9073
:101130008F9008950895CF92DF92EF92FF920F93D0
:101140001F93CF93DF93442309F464C06C01C40E52
:10115000D11C31E0C316D30608F05CC0211118C0C1
:10116000282F2C151D04A0F4E22FE695E695E695B0
:10117000F0E0EF5EF44FE081F0E0322F377002C014
:10118000F595E7953A95E2F7E0FF44C02F5FE9CF88
:10119000F894562FDC01AF5CB34FEC01CF5CD44F19
:1011A000FB012E2F251B241728F421913D91232389
:1011B0002993F7CF789401110AC081E0DF91CF9194
:1011C0001F910F91FF90EF90DF90CF900895142F13
:1011D0007C0181E0C81AD108CEE0D6E0FE018491FE
:1011E0003196E491EE151F047CF08C151D0409F076
:1011F00058F4FE013296259134912115310521F0E4
:10120000612F8E2DF90119952496F6E0CA32DF0779
:1012100029F7D3CF80E0D2CFAF92BF92CF92DF92A7
:10122000EF92FF920F931F93CF93DF936C017B019B
:101230008B01040F151FEB015E01AE18BF08C0172C
:10124000D10759F06991D601ED91FC910190F0819F
:10125000E02DC6011995892B79F7C501DF91CF9152
:101260001F910F91FF90EF90DF90CF90BF90AF90C4
:101270000895FC01538D448D252F30E0842F90E09C
:10128000821B930B541710F0CF9608950197089581
:10129000FC01918D828D981761F0A28DAE0FBF2F4A
:1012A000B11D5D968C91928D9F5F9F73928F90E0A0
:1012B00008958FEF9FEF0895FC01918D828D98170F
:1012C00031F0828DE80FF11D858D90E008958FEF4C
:1012D0009FEF0895FC01918D228D892F90E0805C15
:1012E0009F4F821B91098F739927089583E99EE090
:1012F0000E946A0921E0892B09F420E0822F0895D9
:10130000FC01A48DA80FB92FB11DA35ABF4F2C917A
:10131000848D90E001968F739927848FA689B78971
:101320002C93A089B1898C91837080648C93938D68
:10133000848D981306C00288F389E02D80818F7D0B
:1013400080830895EF92FF920F931F93CF93DF93C3
:10135000EC0181E0888F9B8D8C8D98131AC0E889F1
:10136000F989808185FF15C09FB7F894EE89FF89C0
:101370006083E889F98980818370806480839FBF5E
:1013800081E090E0DF91CF911F910F91FF90EF905E
:101390000895F62E0B8D10E00F5F1F4F0F7311276E
:1013A000E02E8C8D8E110CC00FB607FCFACFE889A9
:1013B000F989808185FFF5CFCE010E948009F1CFA8
:1013C000EB8DEC0FFD2FF11DE35AFF4FF0829FB71D
:1013D000F8940B8FEA89FB8980818062CFCFCF930D
:1013E000DF93EC01888D8823B9F0AA89BB89E8894D
:1013F000F9898C9185FD03C0808186FD0DC00FB6F3
:1014000007FCF7CF8C9185FFF2CF808185FFEDCF70
:10141000CE010E948009E9CFDF91CF91089580E04D
:1014200090E0892B29F00E94760981110E9400002A
:1014300080E090E0892B49F080E090E0892B29F052
:101440000E94000081110E94000080E090E0892B42
:1014500049F080E090E0892B29F00E940000811182
:101460000E94000080E090E0892B49F080E090E04D
:10147000892B29F00E94000081110C94000008952E
:101480004F925F926F927F92AF92BF92CF92DF9214
:10149000EF92FF920F931F93CF93DF93F8948FB740
:1014A000F89440908B0E50908C0E60908D0E709042
:1014B0008E0E8FBF8091EA0A9091EB0AA091EC0A00
:1014C000B091ED0A84159505A605B705A1F1A30114
:1014D0009201281B390B4A0B5B0B60E070E080E047
:1014E00090E0A090E20AB090E30AC090E40AD090A5
:1014F000E50AE090E60AF090E70A0091E80A109108
:10150000E90A0E9471242093E20A3093E30A40938F
:10151000E40A5093E50A6093E60A7093E70A809321
:10152000E80A9093E90A4092EA0A5092EB0A609224
:10153000EC0A7092ED0A78942091E20A3091E30A65
:101540004091E40A5091E50A6091E60A7091E70A39
:101550008091E80A9091E90ADF91CF911F910F9154
:10156000FF90EF90DF90CF90BF90AF907F906F9003
:101570005F904F9008958F929F92AF92BF92CF92BB
:10158000DF92EF92FF920F931F93CF93DF93CDB72C
:10159000DEB7CC54D1400FB6F894DEBF0FBECDBF3E
:1015A000833508F458C0F8948CE491E0E6E9F9E05A
:1015B000DE01119601900D920197E1F77894FB01FD
:1015C000148213821282118210828091330F9091C3
:1015D000340F02E310E0029711F408E210E0FE017C
:1015E000319690E030E020E0A92FA695A695A6952B
:1015F000A60FB72FB11DC088D188E288F3888484F4
:101600009584A684B784C818D908EA08FB0841E085
:101610000C151D052E053F0508F040E08C91880F44
:10162000842B8C939F5F38969832F1F681E0C45BEF
:10163000DE4F0FB6F894DEBF0FBECDBFDF91CF9166
:101640001F910F91FF90EF90DF90CF90BF90AF90E0
:101650009F908F90089580E0EACFCF93DF938091A1
:10166000420D8823B9F08091430D833598F4C091E1
:10167000430D81E08C0F8093430DD0E00E949707CB
:10168000CC0FDD1FCC0FDD1FCA56D64F6883798380
:101690008A839B83DF91CF910895EF92FF920F93FE
:1016A0001F93CF93DF937C01E40EF11C21E0E2163F
:1016B000F20608F068C0FC01EE15FF05A0F4AE2F9D
:1016C000A695A695A695B0E0A251B54FAC91B0E015
:1016D0005E2F577002C0B595A7955A95E2F7A0FF07
:1016E00052C03196E9CFF894EC01CF5CD44FDC01C5
:1016F000AF5CB34F162FFB015E2F511B541728F41C
:1017000059916D9156235193F7CFC42F8C01789442
:1017100081E0E81AF108E6E0F6E08491E7E0F6E01F
:10172000E491E01711067CF08E151F0409F058F4BF
:10173000E8E0F6E0259134912115310521F0642F80
:10174000802FF9011995EAE0F6E08491EBE0F6E0EC
:10175000E491E01711067CF08E151F0409F058F48F
:10176000ECE0F6E0259134912115310521F06C2F44
:10177000802FF901199581E0DF91CF911F910F9191
:10178000FF90EF90089580E0F7CFFF920F931F93A3
:10179000CF93DF93B0E0A0E070E001E010E0A61787
:1017A000B70710F5982F9A0F292F2695269526957D
:1017B00030E09770E80101C0CC0F9A95EAF7F90183
:1017C0004130510569F0E251F54F908142305105A9
:1017D00021F0C92BC0831196E2CF9C2B9083F90195
:1017E000EF5EF44F9081F5CFDF91CF911F910F9174
:1017F000FF900895EF92FF920F93CF93DF9300D065
:101800001F92CDB7DEB77C0119821A821B821C821F
:1018100044E0BE016F5F7F4F0E944D0B8823A1F013
:1018200089819A81AB81BC810196A11DB11D8983FB
:101830009A83AB83BC8300E021E044E0BE016F5F8C
:101840007F4FC7010E949B080F900F900F900F9041
:10185000DF91CF910F91FF90EF9008950F93CF9369
:10186000DF931F92CDB7DEB7898300E021E041E02E
:10187000BE016F5F7F4F84E090E00E949B0886E08E
:1018800090E00E94FA0B0F90DF91CF910F91089595
:10189000EF92FF920F93CF93DF931F921F92CDB7DA
:1018A000DEB77C011A82198242E0BE016F5F7F4F72
:1018B0000E944D0B882371F089819A8101969A8349
:1018C000898300E021E042E0BE016F5F7F4FC701E6
:1018D0000E949B080F900F90DF91CF910F91FF9086
:1018E000EF900895CF92DF92EF92FF92DC019C017E
:1018F000260F371F6FEF7FEFCB01A217B307A9F0B9
:10190000ED91E62744E0E49FF0011124EA5FFD4FEA
:10191000C590D590E590F490672F782F892F99275F
:101920006C257D258E259F25E8CF60957095809547
:101930009095FF90EF90DF90CF900895282FE0E1F1
:10194000F2E080E09191922319F0811106C081E0CC
:1019500092E0E431F907B1F7089580E008950F931C
:10196000CF93DF931F921F92CDB7DEB7198241E06C
:10197000BE016F5F7F4F80EF90E00E944D0B898129
:101980000E942E0C1A8200E021E041E0BE016E5F51
:101990007F4F80EF90E00E949B080F900F90DF91A7
:1019A000CF910F9108950F931F93CF93DF93CDB7EE
:1019B000DEB760970FB6F894DEBF0FBECDBF1982B9
:1019C0001A821B821C821D821E821F82188648E09A
:1019D000BE016F5F7F4F88E290E00E944D0B00E0F8
:1019E00021E048E0BE016F5F7F4F84E890E00E94F5
:1019F0009B081A8619861C861B8608EE13E01E8734
:101A00000D8742E0BE01675F7F4F80E490E00E9457
:101A10004D0B42E0BE01655F7F4F80E890E00E9481
:101A20004D0B42E0BE01635F7F4F82E890E00E9471
:101A30004D0B8D859E85892B11F41E870D87298579
:101A40003A85AD85BE850E94532428EE33E040E000
:101A500050E00E942C248B859C85092E000CAA0B3B
:101A6000BB0B820F931FA41FB51F811520E892079F
:101A70002FEFA207B20724F480E090E8AFEFBFEFAA
:101A8000811520E89207A105B10524F08FEF9FE7AB
:101A9000A0E0B0E0988B8F8700E021E042E0BE013B
:101AA000615F7F4F82E490E00E949B0860960FB6D2
:101AB000F894DEBF0FBECDBFDF91CF911F910F9184
:101AC00008950F93CF93DF931F92CDB7DEB719829E
:101AD00000E021E041E0BE016F5F7F4F88E490E0CD
:101AE0000E949B080F90DF91CF910F910895CF93A3
:101AF000DF931F921F92CDB7DEB741E0BE016E5F4C
:101B00007F4F81E690E00E944D0B811109C090E06B
:101B100080E00E94C5060F900F90DF91CF9108954D
:101B20008A818823A1F341E0BE016F5F7F4F80E689
:101B300090E00E944D0B882371F3898190E0E9CFFA
:101B40000F93CF93DF9300D01F921F92CDB7DEB7D4
:101B500041E0BE016B5F7F4F85E090E00E944D0B3E
:101B6000882371F08D81853AA1F01D8200E021E08B
:101B700041E0BE016B5F7F4F85E090E00E949B08D3
:101B80000F900F900F900F900F90DF91CF910F91CA
:101B9000089519821A821B821C8200E021E041E034
:101BA000BE016F5F7F4F84E090E00E949B0821E0C0
:101BB00044E0BE016F5F7F4F86E090E00E949B088B
:101BC00021E044E0BE016F5F7F4F8EE490E00E9411
:101BD0009B0821E042E0BE016F5F7F4F80EA90E00A
:101BE0000E949B0821E042E0BE016F5F7F4F82EAC6
:101BF00090E00E949B0821E042E0BE016F5F7F4FB2
:101C000084EA90E00E949B0821E042E0BE016F5F01
:101C10007F4F86EA90E0B2CF0F93CF93DF931F926E
:101C2000CDB7DEB741E0BE016F5F7F4F83E090E04C
:101C30000E944D0B882371F08981853A81F01982C9
:101C400000E021E041E0BE016F5F7F4F83E090E064
:101C50000E949B080F90DF91CF910F91089588E12A
:101C600098E00FB6F894A895809360000FBE90930B
:101C70006000FFCF4F925F926F927F928F929F9200
:101C8000AF92BF92CF92DF92EF92FF9290E080E00E
:101C90000E94D9036B017C010E94460420E030E0E1
:101CA00048EC52E40E94D9210E940A234B015C01B6
:101CB00026EF38E24AE851E4C701B6010E948523C5
:101CC0002B013C0123E333EB4DE653E4C701B6019E
:101CD0000E9468219B01AC01C301B2010E94D9217D
:101CE000A50194010E9468216B017C0123E333EB81
:101CF0004DE653E40E9485234B015C01A701960148
:101D000066EF78E28AE891E40E9467219B01AC01CA
:101D1000C501B4010E94D921FF90EF90DF90CF90D0
:101D2000BF90AF909F908F907F906F905F904F90FB
:101D30000895FC0101900020E9F73197AF01481B9D
:101D4000590BBC0183E99EE00C940C092F923F9241
:101D50004F925F926F927F928F929F92AF92BF92BB
:101D6000CF92DF92EF92FF920F931F93CF93DF9367
:101D7000CDB7DEB7C252D1400FB6F894DEBF0FBE6A
:101D8000CDBFC65CDE4FC880D980CA53D140809198
:101D9000310F882309F4C4C0FE01E45CFE4FE12C3E
:101DA000FF24F3948E010F5F1F4FCF5DDE4F08833A
:101DB000C152D140CE5DDE4F1883C252D1409FE761
:101DC000A92E93E0B92E23E0222E23E0322E34E315
:101DD000432E32E0532E4E0121E0820E921ED60198
:101DE0009C91992309F486C01E141F040CF082C034
:101DF000953209F074C011968C91863669F53F01D1
:101E0000B4E06B0E711C83818F9382818F938181EB
:101E10008F9380818F935F924F921F92E0E2EF93B6
:101E20009F928F920E94CA249F928F92BF92AF92EC
:101E3000FF92EF921F930F930E94CA24080F191F5D
:101E4000E81AF90AF2E0CF0ED11C0FB6F894DEBF03
:101E50000FBECDBFF301C3CF8436C1F43F0192E082
:101E6000690E711C81818F9380818F933F922F9295
:101E7000FF92EF921F930F930E94CA24080F191F1D
:101E8000E81AF90AA2E0CA0ED11CDFCF8337C1F4E9
:101E90003F0122E0620E711C81818F9380818F93BC
:101EA000BF92AF92FF92EF921F930F930E94CA24AA
:101EB000080F191FE81AF90A82E0C80ED11CC5CF15
:101EC000883569F43F01B2E06B0E711C81818F93FC
:101ED00080818F93EAE3F2E0FF93EF93E3CFBFEFCC
:101EE000CB1ADB0AD8019C93B1E0EB1AF1080F5F23
:101EF0001F4F75CFF80110828FE392E00E94990E78
:101F0000CF5DDE4F8881C152D140CE5DDE4F9881DA
:101F1000C252D1400E94990E8CE492E00E94990E28
:101F2000CE5DDE4F0FB6F894DEBF0FBECDBFDF91A2
:101F3000CF911F910F91FF90EF90DF90CF90BF90C6
:101F4000AF909F908F907F906F905F904F903F9059
:101F50002F9008954F925F926F927F928F929F92EF
:101F6000AF92BF92CF92DF92EF92FF920F931F93A7
:101F7000CF93DF9390E080E00E94D903F62EE72E06
:101F8000D82EC92E0E944604EB01182F092F80E39A
:101F90009FE02091310F2223C1F00F931F93DF9315
:101FA000CF93CF92DF92EF92FF922FE432E03F93F4
:101FB0002F939F938F930E94A60E8DB79EB70C967A
:101FC0000FB6F8949EBF0FBE8DBF8091330F9091D6
:101FD000340F019709F460C0412C512C90E2692E16
:101FE00092EC792E812C912C20EAA22E22E4B22EA2
:101FF000B701C601272F3E2D492F5C2DD701F601D1
:102000006B2F7E2D8F2F9C2D0E94F223811118C0E3
:10201000A3019201D701F6016B2F7E2D8F2F9C2DEE
:102020000E94D42187FD0CC0B701C601272F3E2D89
:10203000492F5C2DC501B4010E94D42187FF36C011
:1020400020E33FE08091310F8823A9F0CF92DF9207
:10205000EF92FF928DE692E09F938F933F932F93A1
:102060000E94A60E8DB79EB708960FB6F8949EBF35
:102070000FBE8DBF80E0DF91CF911F910F91FF9038
:10208000EF90DF90CF90BF90AF909F908F907F9018
:102090006F905F904F900895412C512C3201812C0C
:1020A000912C88E4A82E82E4B82EA2CFC8012C2F50
:1020B0003D2F492F502FF8016C2F7D2F8F2F902F00
:1020C0000E94F223811119C020E030E0A901F8013B
:1020D0006C2F7D2F8F2F902F0E94D42187FD0DC054
:1020E00020E030E048EC52E4F8016C2F7D2F8F2F78
:1020F000902F0E94FD221816E4F420E33FE0809127
:10210000310F882309F4B7CF0F931F93DF93CF9339
:102110008EE992E09F938F933F932F930E94A60E98
:102120008DB79EB708960FB6F8949EBF0FBE8DBFB1
:10213000A1CF81E0A0CF2F923F924F925F926F92FA
:102140007F928F929F92AF92BF92DF92EF92FF9217
:102150000F931F93CF93DF938091300F8823B9F1B2
:102160000E94AA0F811113C085E090E09093A910FE
:102170008093A8108091AA109091AB100196909333
:10218000AB108093AA1085E0E82EF12C0DC081E001
:1021900080935A0F1092A9101092A8101092AB10B1
:1021A0001092AA10F12CE12CC701DF91CF911F9161
:1021B0000F91FF90EF90DF90BF90AF909F908F9026
:1021C0007F906F905F904F903F902F9008958091F7
:1021D000330F9091340F019709F0B3C082E390E080
:1021E000D12CC0E3DFE004E010E072E0272E312CB8
:1021F0002C01712C612C8091350FD81608F0EAC1A2
:102200009091310F9923B9F01F928F938D2D90E00B
:1022100001969F938F938CEC92E09F938F93DF9323
:10222000CF930E94A60E8DB79EB708960FB6F8946E
:102230009EBF0FBE8DBF8091310F882391F080919A
:10224000320F1F928F938FED92E09F938F93DF93C6
:10225000CF930E94A60E0F900F900F900F900F90AB
:102260000F9061E08091320F0E94940660E08091AF
:10227000320F0E9466066091360F7091370F90E022
:1022800080E00E94670861E08091320F0E9466063C
:1022900083E790E00197F1F762E08091320F0E94AE
:1022A00094060E9497074B015C018091320F0E94B7
:1022B0003D067C01019709F047C00E949707AB01DA
:1022C000BC01481959096A097B098091380F90911E
:1022D000390FB0E0A0E084179507A607B70728F7E5
:1022E000F092A910E092A8108091AA109091AB10E2
:1022F00001969093AB108093AA10EE24E394F12CF6
:102300008091310F8823B9F0F701EE0FFF1FEC5ECB
:10231000FD4F81818F9380818F9382E793E09F931C
:102320008F93DF93CF930E94A60E0F900F900F9084
:102330000F900F900F90C301B2010E946708D394D1
:102340005ACF84E190E04CCF0E9497074B015C018B
:102350008091320F0E943D06892B21F50E9497073C
:10236000AB01BC01481959096A097B098091380FF2
:102370009091390FB0E0A0E084179507A607B70742
:1023800038F73092A9102092A8108091AA1090914D
:10239000AB1001969093AB108093AA1052E0E52EFB
:1023A000F12CAECF0E9497074B015C018091320F58
:1023B0000E943D060197A1F40E949707AB01BC0162
:1023C000481959096A097B098091380F9091390F92
:1023D000B0E0A0E084179507A607B70738F7D1CF7C
:1023E00090E080E00E94BC0780935B0F8F3F09F074
:1023F00048C01093A9100093A8108091AA10909142
:10240000AB1001969093AB108093AA1044E0E42E99
:10241000F12C8091310F882309F4EAC0F701EE0F07
:10242000FF1FEC5EFD4F81818F9380818F938EE53E
:1024300093E09F938F93DF93CF930E94A60E0F900C
:102440000F900F900F900F900F90E114F10409F08E
:1024500057CF0E94AA0F8111B1C085E090E0909300
:10246000A9108093A8108091AA109091AB100196AA
:102470009093AB108093AA1080915A0F811192CE45
:1024800082CE88E090E00E94BC0780935C0F8F3F73
:1024900009F4AFCF80E190E00E94BC0780935D0F0C
:1024A0008F3F09F4A6CF88E190E00E94BC0780939B
:1024B0005E0F8F3F09F49DCF80E290E00E94BC0741
:1024C00080935F0F8F3F09F494CF9091310F992340
:1024D00011F11F928F9380915E0F1F928F938091C5
:1024E0005D0F1F928F9380915C0F1F928F9380914D
:1024F0005B0F1F928F9386E093E09F938F93DF9300
:10250000CF930E94A60E8DB79EB70E960FB6F89485
:102510009EBF0FBE8DBF80915B0F20915C0F820F1D
:1025200020915D0F280F80915E0F280F40915F0F63
:102530003091310F241749F183E090E09093A91076
:102540008093A8108091AA109091AB10019690935F
:10255000AB108093AA103323A1F01F924F931F92C8
:102560002F9380E293E09F938F93DF93CF930E940A
:10257000A60E8DB79EB708960FB6F8949EBF0FBEF5
:102580008DBF33E0E32EF12C44CF1092A9101092AE
:10259000A8101092AB101092AA10332361F08CE3B4
:1025A00093E09F938F93DF93CF930E94A60E0F909B
:1025B0000F900F900F90F12CE12C2BCF1092A910BF
:1025C0001092A8101092AB101092AA1081E0809384
:1025D0005A0FE8CDF092A910E092A8108091AA10AD
:1025E0009091AB1001969093AB108093AA10DCCD24
:1025F000E114F10409F42DCF9ECE1092890E1092B1
:10260000660D1092650D1092640D1092630D10927C
:10261000810E1092820E1092830E1092840E1092F0
:10262000850E1092860E1092870E1092880E8AE107
:1026300091E0E4E1F4E0DF019C011D922150304083
:10264000E1F7E7E6FDE0DF019C011D9221503040FB
:10265000E1F70895EF92FF920F93CF93DF93211547
:10266000310511F4011143C0FB01EC018AE191E055
:10267000DE01BC011D9261507040E1F78AEA95E5E8
:1026800099838883F480B581A6817781608551859F
:1026900092858385FC82BD83AE837F83688759875B
:1026A0009A878B871C861D861E861F86188A198A24
:1026B0001A8A1B8A4C8B858984608D8B0E8BE02E49
:1026C000F12C2115310541F0002331F0A701B901AA
:1026D000CE0147960E94BA2477E1E70EF11CFB82F7
:1026E000EA82CA5EDE4F188219821A821B82DF914B
:1026F000CF910F91FF90EF900895DF92EF92FF92AC
:102700000F931F93CF93DF9300D000D01F921F929F
:10271000CDB7DEB7FC01808191818A3A954509F0F9
:10272000A4C0268930E0295E3F4F828193818217C1
:10273000930709F09AC08F0185890E949E0CD82EBC
:10274000882309F483C0E4E1F4E08AE191E0DF0149
:102750009C011D9221503040E1F719821A821B82A0
:102760001C821D821E821F82188648E0BE016F5F98
:102770007F4F88E290E00E944D0BD82E882309F409
:1027800065C0D8018D919C91119790931504809309
:10279000140412968D919C919093170480931604C3
:1027A000F801349688E0A8E1B4E001900D928A9592
:1027B000E1F78981809320048A81809321048B81B1
:1027C000809322048C81809323048D818093240440
:1027D0008E81809325048F81809326048885809341
:1027E0002704F8018489809328048589809329042B
:1027F000868980932A04468950E0B801695E7F4F3C
:102800008BE294E00E94BA24D8015696EC90F12C09
:10281000B7E1EB0EF11CB70184E194E00E94720C69
:10282000F701EC5EFB4F6083718382839383F80131
:10283000428153814C5F5F4F64E174E083E99EE025
:102840000E940C098CEA90E00E94FA0B8D2D2896CC
:102850000FB6F894DEBF0FBECDBFDF91CF911F91B1
:102860000F91FF90EF90DF900895D12CEFCF2F9232
:102870003F924F925F926F927F928F929F92AF9210
:10288000BF92CF92DF92EF92FF920F931F93CF935D
:10289000DF93CDB7DEB7CD53D3400FB6F894DEBF8C
:1028A0000FBECDBF8AE1282E33243394BE016F5F63
:1028B0007F4F4B01CE010996CA5CDC4F9983888318
:1028C000C653D340ABE1B1E0AC0FBD1F5996C85C15
:1028D000DC4FB983A883C853D340E5E3F2E0EC0FA3
:1028E000FD1F3296C65CDC4FF983E883CA53D340A0
:1028F00020910E0B222309F452C280910F0B90E01D
:10290000829DF001839DF00D929DF00D1124E25DFA
:10291000FA4FDE01A55EBE4FA10101900D9241501C
:102920005040D9F701968370992780930F0B21505F
:1029300020930E0B0E94400A2093310D3093320DEC
:102940004093330D5093340D6093350D7093360DD5
:102950008093370D9093380DC05DDE4F1881C053C2
:10296000D140812F0E949E0C81114CC0D401F101F5
:102970001D923197E9F76AEA75E57A836983C15E4A
:10298000DE4F8881CF51D1408D83C05EDE4F88817C
:10299000C052D1408E83CF5DDE4F8881C152D1407D
:1029A0008F83CE5DDE4F8881C252D1408887CD5D56
:1029B000DE4F8881C352D1408987CC5DDE4F88814C
:1029C000C452D1408A87CB5DDE4F8881C552D14049
:1029D0008B87CA5DDE4F8881C652D1408C877FEFDE
:1029E0007D8B14601E8B87E190E09C838B83C401F8
:1029F0000E947D1386EA90E00E94480C8D890E9417
:102A00002E0C76CF10FF68C0CF5CDE4F8881C1539B
:102A1000D140823021F000E030E020E024C0CE5CE4
:102A2000DE4F1881C253D140CD5CDE4F0881C353C5
:102A3000D140002351F0812F90E09C01200F311DE7
:102A40002130314010F40E3F80F0CB5CDD4F188315
:102A5000C553D240CA5CDD4F0883C653D24002E062
:102A60009E012B5C3D4F43E024C0CB5CDD4F1883BF
:102A7000C553D240CA5CDD4F0883C653D240402FB5
:102A8000C65CDC4F68817981CA53D3400E944D0BEC
:102A900081111DC0CC5CDC4F1883C453D340CB5C88
:102AA000DC4F0883C553D34002E09E012C5C3C4FB1
:102AB00042E0BE01655E7E4FC4010E942A138D89EB
:102AC00081110E942E0CC4010E947D1311CF0E5F54
:102AD0009E012B5C3D4F4CC011FF4CC0CF5CDE4FC4
:102AE0008881C153D140823008F495CFCE5CDE4F4F
:102AF000F880C253D140CD5CDE4F1881C353D14022
:102B0000112341F0212F30E0A9014E5F5F4F841760
:102B1000150659F0CB5CDD4FF882C553D240CA5C34
:102B2000DD4F1883C653D2409ACF8F2D90E0280FE7
:102B3000391F2130314070F701E020E0412FC85C9F
:102B4000DC4F68817981C853D3400E949B08CB5CDD
:102B5000DD4FF882C553D240CA5CDD4F1883C6539F
:102B6000D24002E09E012B5C3D4F882309F4A0CFA8
:102B700040E09FCF14FF38C0CB5CDD4F1882C553B7
:102B8000D240CA5CDD4F1882C653D240C95CDD4FCB
:102B90001882C753D240C85CDD4F1882C853D24058
:102BA000C75CDD4F1882C953D240C65CDD4F188226
:102BB000CA53D240C55CDD4F1882CB53D240C45CAF
:102BC000DD4F1882CC53D24048E0BE016B5C7D4F94
:102BD00080E290E00E944D0B08E0811179CF00E087
:102BE00030E020E04FEF65CF13FF97C0CF5CDE4FA2
:102BF0008881C153D140883009F00DCFCE5CDE4FC3
:102C0000A880C253D140CD5CDE4FB880C353D140C1
:102C1000CC5CDE4FC880C453D140CB5CDE4FD88043
:102C2000C553D140CA5CDE4FE880C653D140C95C71
:102C3000DE4FF880C753D140C85CDE4F0881C853CF
:102C4000D140C75CDE4F1881C953D1400E94400A71
:102C500029013A01C45CDC4F6883CC53D340C35C88
:102C6000DC4F7883CD53D340F82FE92F9501A6018F
:102C7000B701C80152016301C45CDC4FE880CC534A
:102C8000D340C35CDC4FF880CD53D3400F2F1E2FB1
:102C90000E947A2429833A834B835C836D837E83ED
:102CA0008F839887F894C40141E65CE021E63BE01D
:102CB000DC016D91CD01DA017D91AD016723D90170
:102CC0006D939D01CA5CDC4F68817981C653D34006
:102CD0008617970769F778944092390D50923A0D0C
:102CE00060923B0D70923C0DC45CDC4FA881CC53CC
:102CF000D340A0933D0DC35CDC4FB881CD53D3408E
:102D0000B0933E0DF0933F0DE093400DE1E0E09372
:102D1000410D00E030E020E02BCFD401F1011D9205
:102D20003197E9F76AEA75E57A836983C15EDE4F18
:102D30008881CF51D1408D83C05EDE4F8881C052E3
:102D4000D1408E83CF5DDE4F8881C152D1408F83C9
:102D5000CE5DDE4F8881C252D1408887CD5DDE4F87
:102D60008881C352D1408987CC5DDE4F8881C452AF
:102D7000D1408A87CB5DDE4F8881C552D1408B8799
:102D8000CA5DDE4F8881C652D1408C877FEF7D8B34
:102D900014601E8B87E190E09C838B8390CEC35C94
:102DA000DC4F0FB6F894DEBF0FBECDBFDF91CF91E1
:102DB0001F910F91FF90EF90DF90CF90BF90AF9059
:102DC0009F908F907F906F905F904F903F902F904B
:102DD00008950F931F93CF93DF93CDB7DEB7CA51FA
:102DE000D1400FB6F894DEBF0FBECDBF0091650D88
:102DF0001091660D045011096FEF7FEFCB0129F0A0
:102E0000B80187E69DE00E94720CF801E959F24F83
:102E1000008111812281338106171707280739079E
:102E200029F080EA90E00E94480C84C08091670DF0
:102E30009091680D9A8389838091690D90916A0DB4
:102E40009C838B8380916B0D8D8380916C0D8E8321
:102E500080916D0D8F8380916E0D888780916F0DAD
:102E600089878091700D8A878091710D8B87809101
:102E7000720D8C878091730D8D878091740D8E8774
:102E80008091750D8F878091760D888B8091770D5D
:102E9000898B8091780D8A8B8091790D8B8B8091B5
:102EA0007A0D8C8B80917B0D8D8B80917C0D8E8B20
:102EB00000917D0D0F8B10E0A8016EE77DE0CE0143
:102EC00048960E94BA24F801E258F24F808191811D
:102ED000A281B381C95EDE4F88839983AA83BB83B5
:102EE000C751D14020910E0B84EA90E0243008F0C5
:102EF0009ACF8091100B90E04AE151E0849FD0017D
:102F0000859FB00D949FB00D1124A25DBA4FFE01B4
:102F1000319601900D9241505040D9F7019683703F
:102F200099278093100B2F5F20930E0B88EA90E077
:102F30000E94FA0BC65EDE4F0FB6F894DEBF0FBEDE
:102F4000CDBFDF91CF911F910F910C94FD121F9275
:102F50000F920FB60F9211242F933F938F939F934D
:102F6000AF93BF9380918B0E90918C0EA0918D0E9C
:102F7000B0918E0E30918A0E23E0230F2D3758F535
:102F80000196A11DB11D20938A0E80938B0E909304
:102F90008C0EA0938D0EB0938E0E80918F0E90911B
:102FA000900EA091910EB091920E0196A11DB11DAF
:102FB00080938F0E9093900EA093910EB093920EEB
:102FC000BF91AF919F918F913F912F910F900FBE25
:102FD0000F901F90189526E8230F0296A11DB11D92
:102FE000D2CF1F920F920FB60F9211240BB60F92F1
:102FF0002F933F934F935F936F937F938F939F9301
:10300000AF93BF93EF93FF93E0910E02F0910F0205
:103010001995FF91EF91BF91AF919F918F917F9102
:103020006F915F914F913F912F910F900BBE0F9039
:103030000FBE0F901F9018951F920F920FB60F9210
:1030400011240BB60F922F933F934F935F936F937F
:103050007F938F939F93AF93BF93EF93FF93E091F1
:103060000C02F0910D021995FF91EF91BF91AF9174
:103070009F918F917F916F915F914F913F912F9190
:103080000F900BBE0F900FBE0F901F9018951F92C0
:103090000F920FB60F9211240BB60F922F933F93FE
:1030A0004F935F936F937F938F939F93AF93BF9350
:1030B000EF93FF93E0910202F09103021995FF91C3
:1030C000EF91BF91AF919F918F917F916F915F91A0
:1030D0004F913F912F910F900BBE0F900FBE0F900D
:1030E0001F9018951F920F920FB60F9211240BB6D6
:1030F0000F922F933F934F935F936F937F938F9391
:103100009F93AF93BF93EF93FF93E0910002F091F1
:1031100001021995FF91EF91BF91AF919F918F910E
:103120007F916F915F914F913F912F910F900BBEC7
:103130000F900FBE0F901F9018951F920F920FB611
:103140000F9211240BB60F922F933F934F935F93DF
:103150006F937F938F939F93AF93BF93EF93FF935F
:10316000E0910A02F0910B021995FF91EF91BF9146
:10317000AF919F918F917F916F915F914F913F910F
:103180002F910F900BBE0F900FBE0F901F901895B0
:103190001F920F920FB60F9211240BB60F922F931E
:1031A0003F934F935F936F937F938F939F93AF93CF
:1031B000BF93EF93FF93E0910802F09109021995F4
:1031C000FF91EF91BF91AF919F918F917F916F91FF
:1031D0005F914F913F912F910F900BBE0F900FBEBB
:1031E0000F901F9018951F920F920FB60F921124F7
:1031F0000BB60F922F933F934F935F936F937F93F1
:103200008F939F93AF93BF93EF93FF93E091060249
:10321000F09107021995FF91EF91BF91AF919F91A6
:103220008F917F916F915F914F913F912F910F906F
:103230000BBE0F900FBE0F901F9018951F920F920C
:103240000FB60F9211240BB60F922F933F934F930B
:103250005F936F937F938F939F93AF93BF93EF93FE
:10326000FF93E0910402F09105021995FF91EF910F
:10327000BF91AF919F918F917F916F915F914F918E
:103280003F912F910F900BBE0F900FBE0F901F908C
:1032900018951F920F920FB60F9211240BB60F9232
:1032A0002F933F934F935F936F937F938F939F934E
:1032B000AF93BF93EF93FF9383E99EE00E94800951
:1032C000FF91EF91BF91AF919F918F917F916F91FE
:1032D0005F914F913F912F910F900BBE0F900FBEBA
:1032E0000F901F9018951F920F920FB60F921124F6
:1032F0000BB60F922F938F939F93EF93FF93E091D1
:10330000A30EF091A40E8081E091A90EF091AA0E77
:1033100082FD1DC090818091AC0E8F5F8F732091D4
:10332000AD0E821741F0E091AC0EF0E0ED56F14F9A
:10333000958F8093AC0EFF91EF919F918F912F917C
:103340000F900BBE0F900FBE0F901F9018958081AD
:10335000F2CFE3E9FEE01382128288EE93E0A0E070
:10336000B0E084839583A683B78386E292E091835D
:10337000808385EC90E09587848784EC90E0978744
:10338000868780EC90E0918B808B81EC90E0938B32
:10339000828B82EC90E0958B848B86EC90E0978B0F
:1033A000868B118E128E138E148EE0E3FFE0108256
:1033B0001182108A118A128A138A148A158A168A2F
:1033C000178A12A61092A1101092A0101092A310AA
:1033D0001092A2101092A4101092A5101092A61094
:1033E0001092A7101092A9101092A8101092AB1072
:1033F0001092AA101092AC101092AD101092AE1054
:103400001092AF1082E082831482138283E085835E
:1034100082E190E09783868388E893E191878087B3
:1034200080E590E09387828788E790E0958784879E
:1034300082E390E0978786870895CF93DF93CDB797
:10344000DEB7AA970FB6F894DEBF0FBECDBF789453
:1034500084B5826084BD84B5816084BD85B5826099
:1034600085BD85B5816085BD80916E00816080934A
:103470006E001092810080918100826080938100B3
:1034800080918100816080938100809180008160C3
:10349000809380008091B10084608093B10080911E
:1034A000B00081608093B000809191008260809331
:1034B00091008091910081608093910080919000B3
:1034C0008160809390008091A10082608093A10030
:1034D0008091A10081608093A1008091A000816013
:1034E0008093A000809121018260809321018091CE
:1034F000210181608093210180912001816080936E
:10350000200180917A00846080937A0080917A0013
:10351000826080937A0080917A00816080937A0043
:1035200080917A00806880937A001092C10040E018
:1035300051E06FEF70E081E39BE00E94C324E1E380
:10354000FCE080E091E0DF019C011D9221503040C1
:10355000E1F780E2EEEEFAE0DF01282F1D922A95D6
:10356000E9F7E1E1FBE0DF011D928A95E9F750E020
:1035700040E061E090E080E00E94C50B50E040E058
:1035800061E081E090E00E94C50B50E040E061E026
:1035900082E090E00E94C50B41E050E061E083E0F2
:1035A00090E00E94C50B50E040E061E084E090E0D4
:1035B0000E94C50B41E050E061E085E090E00E9490
:1035C000C50B50E040E064E086E090E00E94C50B4F
:1035D00050E040E068E080E290E00E94C50B50E0DF
:1035E00040E068E088E290E00E94C50B50E040E0D7
:1035F00068E080E390E00E94C50B50E040E064E0AA
:1036000088E390E00E94C50B50E040E062E080E477
:1036100090E00E94C50B50E040E062E082E490E060
:103620000E94C50B50E040E064E084E490E00E941A
:10363000C50B50E040E061E088E490E00E94C50BDB
:1036400050E040E061E089E490E00E94C50B50E06A
:1036500040E064E08AE490E00E94C50B50E040E066
:1036600064E08EE490E00E94C50B42E050E061E02F
:1036700080E690E00E94C50B42E050E061E081E608
:1036800090E00E94C50B61E088E00E94940690E003
:1036900080E00E94C50641E050E061E080E790E0F4
:1036A0000E94C50B41E050E061E081E790E00E949C
:1036B000C50B42E050E062E080E890E00E94C50B5C
:1036C00042E050E062E082E890E00E94C50B50E0EA
:1036D00040E068E084E890E00E94C50B50E040E0E4
:1036E00062E080EA90E00E94C50B50E040E062E0BA
:1036F00082EA90E00E94C50B50E040E062E084EA7C
:1037000090E00E94C50B50E040E062E086EA90E065
:103710000E94C50B50E040E064E088EA90E00E941F
:10372000C50B50E040E064E08CEA90E00E94C50BDD
:1037300050E040E064E080EB90E00E94C50B41E087
:1037400050E061E080EF90E00E94C50B1092310BD9
:103750008FEF8093310C91E09093320B8093320C79
:103760009093330B8093330C1092340B8093340C72
:103770001092350B8093350C1092360B8093360CDB
:103780001092370B8093370C1092380B8093380CC3
:103790001092390B8093390C10923A0B80933A0CAB
:1037A000E1E5FBE0A1E5BCE089E59BE02FEF1192AC
:1037B0002D938E179F07D9F7A9E5BCE0E9E5FBE05B
:1037C0008FEF11928D932BE0E136F207D1F7E1E60E
:1037D000FBE0A1E6BCE08FEF11928D933BE0E93670
:1037E000F307D1F71092690B8093690C10926A0B62
:1037F00080936A0C10926B0B80936B0C10926C0B85
:1038000080936C0C1092710B8093710C1092720B60
:103810008093720C1092730B8093730C1092740B44
:103820008093740C1092750B8093750C1092760B2C
:103830008093760C1092770B8093770C1092780B14
:103840008093780C1092790B91E09093790C109200
:103850007A0B2FE720937A0C10927B0B80937B0CD2
:1038600010927C0B80937C0C10927D0B80937D0CCE
:1038700010927E0B80937E0C10927F0B80937F0CB6
:103880001092800B8093800C1092810B8093810C9E
:103890001092820B8093820C1092910B8093910C6A
:1038A0001092920B9093920C1092A10B9093A10CFA
:1038B0001092A20B9093A20C1092B10B8093B10CBA
:1038C0001092B20B8093B20C98EE9093B30B80934E
:1038D000B30C93E09093B40B8093B40CE5EBFBE056
:1038E000A5EBBCE08FEF11928D935BE0ED3BF5070C
:1038F000D1F71092D10B8093D10C1092D20B809300
:10390000D20C1092D30B8093D30C1092D40B8093D3
:10391000D40C1092D50B8093D50C1092D60B8093BB
:10392000D60C1092D70B8093D70C1092D80B8093A3
:10393000D80C1092D90B8093D90C1092DA0B80938B
:10394000DA0C1092DB0B8093DB0C1092DC0B809373
:10395000DC0C1092DD0B8093DD0C1092DE0B80935B
:10396000DE0C1092DF0B8093DF0C1092E00B809343
:10397000E00C1092E10B8093E10C1092E20B80932B
:10398000E20C1092E30B8093E30C1092E40B809313
:10399000E40C1092210C8093210DE091A30EF09184
:1039A000A40E82E08083E0919F0EF091A00E108221
:1039B000E091A10EF091A20E80E180831092AB0EF7
:1039C000E091A70EF091A80E86E08083E091A50E0D
:1039D000F091A60E808180618083E091A50EF09128
:1039E000A60E808188608083E091A50EF091A60EDE
:1039F000808180688083E091A50EF091A60E808181
:103A00008F7D80830E94FD121092100B10920F0B7D
:103A100010920E0B81E08093300F61E08DE00E94E8
:103A200094061E0149E0240E311C0E94400A298B95
:103A30003A8B4B8B5C8B6D8B7E8B8F8B988F00E0E2
:103A400021E048E0BE016F5E7F4F80E290E00E947F
:103A50009B088091410D882309F489C019861A8634
:103A60001B861C861D861E861F86188A48E0B101AB
:103A700080E390E00E944D0B882309F478C02989E7
:103A80003A894B895C896D897E898F89988DA98453
:103A9000BA84CB84DC84ED84FE840F8518890E946F
:103AA000712429833A834B835C836D837E838F8368
:103AB0009887F894FE01319649E55BE029E53CE002
:103AC0008191D9019D919D018923DA018D93AD01E9
:103AD0002E163F06A9F7789489899A89AB89BC8903
:103AE0004091390D50913A0D60913B0D70913C0D14
:103AF000841B950BA60BB70B8D8F9E8FAF8FB8A332
:103B000000E021E044E0BE01635E7F4F88E390E087
:103B10000E949B088090310D9090320DA090330D43
:103B2000B090340DC090350DD090360DE090370D2B
:103B3000F090380D9401A501B601C701A0E00E94E4
:103B40008C24A9F089899A89AB89BC89881999093B
:103B5000AA09BB09898F9A8FAB8FBC8F21E044E003
:103B6000BE01675E7F4F80EB90E00E949B088DE076
:103B70000E943D06892BE9F00E94400AA0905B0D4F
:103B8000B0905C0DC0905D0DD0905E0DE0905F0D2B
:103B9000F090600D0091610D1091620D0E947A24E9
:103BA000A3E60E948C2429F020F060E08DE00E94C2
:103BB000660680915A0D882311F10E94400A59012E
:103BC0006A018091520D9091530DA091540DB091C6
:103BD000550DA6019501281B390B4A0B5B0BDA0129
:103BE000C90189839A83AB83BC8300E021E044E070
:103BF000BE016F5F7F4F84E490E00E949B0880913C
:103C0000500D9091510D892B09F060C00E94400A1F
:103C1000A090480DB090490DC0904A0DD0904B0D2A
:103C2000E0904C0DF0904D0D00914E0D10914F0D08
:103C30000E94832409F008F454C00E94400A5901EC
:103C40006A017B018C018091330F9091340F40ED1C
:103C500057E0019711F440EB54E09A0140E050E046
:103C600060E070E080E090E00E9471242093480DB5
:103C70003093490D40934A0D50934B0D60934C0D7A
:103C800070934D0D80934E0D90934F0D61E082E047
:103C90000E94940660E082E00E9466062FB7F894C6
:103CA00080918B0E90918C0EA0918D0EB0918E0E06
:103CB0002FBF8093440D9093450DA093460DB09374
:103CC000470D31E03093500D1092510D8091500D01
:103CD0009091510D8130910509F452C0029709F479
:103CE000ABC08091890E882321F10E94400AA090E8
:103CF000810EB090820EC090830ED090840EE09022
:103D0000850EF090860E0091870E1091880E0E940D
:103D10007A24283C3105410551056105710581056D
:103D2000910539F030F082EA90E00E94480C0E9440
:103D3000FD1212E001E083E99EE00E946A09181674
:103D400019060CF0BFC283E99EE00E9448099091D9
:103D5000890E913009F45FC208F43EC2923059F7DF
:103D60002091650D3091660D2A3141E0340708F449
:103D70007CC286EA90E00E94480C0E94FD12DBCFD4
:103D80008FB7F89440918B0E50918C0E60918D0EF0
:103D900070918E0E8FBF8091440D9091450DA09132
:103DA000460DB091470D481B590B6A0B7B0B809158
:103DB000330F9091340F029709F43BC082E190E0F9
:103DC000B0E0A0E0481759076A077B0708F489CFDD
:103DD000F8941092430D81E08093420D789461E055
:103DE00082E00E94660683E790E00197F1F762E0C7
:103DF00082E00E9494068DE29BE090930102809302
:103E0000000280916A008C7F816080936A00EC9A46
:103E10000E9497076093440D7093450D8093460D63
:103E20009093470D42E050E05093510D4093500D58
:103E300058CF82E090E0C4CFF8941091430D78946D
:103E4000133500F1EC988AE998E090930102809391
:103E500000021092420DBE016F5F7F4F812F0E94C2
:103E6000BB0A811123C080E1898700E021E041E0A5
:103E7000B10189E490E00E949B088EE490E00E94EA
:103E8000FA0B4EC10E949707C090440DD090450D8B
:103E9000E090460DF090470D6C197D098E099F0941
:103EA00061347F418105910568F61BCF49813A81D4
:103EB0002B819C81842F830F820F890F5D81851751
:103EC00011F088E0D1CF5091300F552351F040933D
:103ED0005B0F30935C0F20935D0F90935E0F809388
:103EE0005F0F0E949B109EA38DA30E949B10892BA5
:103EF00009F41BC180915A0F412C512C20EC622EE9
:103F00002FE7722E882341F04090480F5090490FC0
:103F100060904A0F70904B0F0E94400A59016A014D
:103F20007B018C018091330F9091340F40ED57E06D
:103F3000019711F440EB54E09A0140E050E060E05A
:103F400070E080E090E00E9471242093480D30934F
:103F5000490D40934A0D50934B0D60934C0D709357
:103F60004D0D80934E0D90934F0D4DA15EA1452BAD
:103F700009F022C161E08DE00E9466060E94400ABD
:103F800020935B0D30935C0D40935D0D50935E0D5F
:103F900060935F0D7093600D8093610D9093620D3F
:103FA00023EC35ED43EA53E4C301B2010E94FD2244
:103FB00018160CF4F8C02AE037ED43EA53ECC301BD
:103FC000B2010E94D42187FF08C09AE0492E97EDE4
:103FD000592E93EA692E93EC792E20E030E048ECDC
:103FE00052E4C301B2010E9485230E9452237AA3A6
:103FF00069A300E021E042E0BE016F5D7F4F80E4F5
:1040000090E00E949B0842E0BE01635E7F4F80E823
:1040100090E00E944D0B882309F482C042E0BE016B
:10402000675E7F4F82E890E00E944D0B882309F481
:1040300077C0898D9A8D892B21F488EE93E09A8F31
:10404000898F29A13AA1A98DBA8D0E94532428EE07
:1040500033E040E050E00E942C248D8D9E8D092E8F
:10406000000CAA0BBB0B820F931FA41FB51F811559
:1040700050E895075FEFA507B50724F480E090E8C6
:10408000AFEFBFEF8115E0E89E07A105B10524F071
:104090008FEF9FE7A0E0B0E09A8B898B00E021E0F2
:1040A00042E0BE016F5E7F4F82E490E00E949B0879
:1040B00019861A861B861C8621E044E0B10184E43F
:1040C00090E00E949B0811E01CA321E041E0BE01AA
:1040D0006C5D7F4F88E490E00E949B081BA321E069
:1040E00041E0BE016D5D7F4F89E490E00E949B0836
:1040F0008AE490E00E94FA0B0E94400A2093520D3D
:104100003093530D4093540D5093550D6093560DBD
:104110007093570D8093580D9093590D10935A0D2D
:104120001092510D1092500DDCCD90E080E00E9475
:10413000D9032B013C010E9446046FA378A789A7ED
:104140009AA70E943A0E6B017C010E94B90440922A
:10415000480F5092490F60924A0F70924B0F2FA157
:1041600038A549A55AA520934C0F30934D0F409385
:104170004E0F50934F0FC092500FD092510FE092BC
:10418000520FF092530F6093540F7093550F80931A
:10419000560F9093570F1092590F1092580F81E0BD
:1041A00080935A0FB9CE83EC482E85ED582E83EAC2
:1041B000682E83E4782E11CF2DA13EA12730310542
:1041C00024F046E050E05EA34DA381E00DA001C0C5
:1041D000880F0A94EAF748CE8A3A09F0ACCD80936A
:1041E000670DB1E0B093650D1092660D0E94400A14
:1041F0002093810E3093820E4093830E5093840E51
:104200006093850E7093860E8093870E9093880E30
:104210000093890E90CD853559F48093680DE2E0C6
:10422000F0E0F093660DE093650D1093890E83CD59
:104230008A3A09F0A2CD8093670DF1E0F093650D05
:104240001092660D0E94400A2093810E3093820ED8
:104250004093830E5093840E6093850E7093860E68
:104260008093870E9093880E66CDA9014F5F5F4FB4
:104270005093660D4093650D2959324FD9018C93A7
:104280004430510589F48091690D90916A0D9C012B
:10429000275131092F3F310511F008F06ACD0496FE
:1042A0009093640D8093630D8091630D9091640DE4
:1042B000009709F440CD4817590708F43CCD0E94F7
:1042C000E91639CD0E9437140E940F0AAECB505820
:1042D000BB27AA270E947F210C94C3220E94B522EB
:1042E00038F00E94BC2220F039F49F3F19F426F4E4
:1042F0000C94B2220EF4E095E7FB0C94AC22E92F6B
:104300000E94D42258F3BA176207730784079507EF
:1043100020F079F4A6F50C94F6220EF4E0950B2E1D
:10432000BA2FA02D0B01B90190010C01CA01A00107
:104330001124FF27591B99F0593F50F4503E68F162
:104340001A16F040A22F232F342F4427585FF3CFA3
:10435000469537952795A795F0405395C9F77EF474
:104360001F16BA0B620B730B840BBAF09150A1F0BD
:10437000FF0FBB1F661F771F881FC2F70EC0BA0F43
:10438000621F731F841F48F4879577956795B795CB
:10439000F7959E3F08F0B0CF9395880F08F09927C6
:1043A000EE0F9795879508950E94882208F481E082
:1043B00008950E94ED210C94C3220E94BC2258F063
:1043C0000E94B52240F029F45F3F29F00C94AC2202
:1043D00051110C94F7220C94B2220E94D42268F35B
:1043E0009923B1F3552391F3951B550BBB27AA27AE
:1043F00062177307840738F09F5F5F4F220F331FE8
:10440000441FAA1FA9F335D00E2E3AF0E0E832D0AF
:1044100091505040E695001CCAF72BD0FE2F29D0B2
:10442000660F771F881FBB1F261737074807AB0784
:10443000B0E809F0BB0B802DBF01FF2793585F4FF9
:104440003AF09E3F510578F00C94AC220C94F72280
:104450005F3FE4F3983ED4F3869577956795B795DB
:10446000F7959F5FC9F7880F911D9695879597F9E6
:104470000895E1E0660F771F881FBB1F621773075F
:104480008407BA0720F0621B730B840BBA0BEE1F74
:1044900088F7E0950895E89409C097FB3EF490955D
:1044A0008095709561957F4F8F4F9F4F9923A9F00D
:1044B000F92F96E9BB279395F6958795779567959C
:1044C000B795F111F8CFFAF4BB0F11F460FF1BC0E0
:1044D0006F5F7F4F8F4F9F4F16C0882311F096E973
:1044E00011C0772321F09EE8872F762F05C0662321
:1044F00071F096E8862F70E060E02AF09A95660FDA
:10450000771F881FDAF7880F9695879597F9089592
:10451000990F0008550FAA0BE0E8FEEF16161706D4
:10452000E807F907C0F012161306E407F50798F03C
:10453000621B730B840B950B39F40A2661F0232B55
:10454000242B252B21F408950A2609F4A140A695D1
:104550008FEF811D811D089597F99F6780E870E0B6
:1045600060E008959FEF80EC089500240A941616E9
:10457000170618060906089500240A941216130651
:10458000140605060895092E0394000C11F48823DF
:1045900052F0BB0F40F4BF2B11F460FF04C06F5FFB
:1045A0007F4F8F4F9F4F089557FD9058440F551FD1
:1045B00059F05F3F71F04795880F97FB991F61F0A5
:1045C0009F3F79F087950895121613061406551F1C
:1045D000F2CF4695F1DF08C0161617061806991F88
:1045E000F1CF86957105610508940895E894BB277D
:1045F00066277727CB0197F908950E94882208F44F
:104600008FEF089516F00C94F7230C94B22268945F
:104610000C94AC220E94DC22A8F39923C1F3AEF3E0
:10462000DF93CF931F930F93FF92C92FDD2788232A
:104630002AF02197660F771F881FDAF720E030E015
:1046400040E85FEB9FE3883920F0803E38F0219608
:104650008F770E946821E4EEF0E004C00E94682198
:10466000E1E1F1E00E9405248B01BE01EC01FB2E8B
:104670006F5771097595771F880B990B0E944D2212
:1046800028E132E741E35FE30E949823AF2D9801D0
:10469000AE01FF900F911F91CF91DF910E947F217A
:1046A0000C94C3220E94DC2258F19E5760F198516D
:1046B000A0F0E9F0983020F5092E9927660F771FB2
:1046C000881F991F0A94D1F712C0062E672F782FE2
:1046D0008827985F11F4000C07C0993FB4F38695C2
:1046E000779567959395D9F7611D711D811D3EF4EE
:1046F00090958095709561957F4F8F4F9F4F08954E
:1047000068940C94F7220C94F6220E9498230C943F
:10471000C3220E94B52238F00E94BC2220F09523CB
:1047200011F00C94AC220C94B22211240C94F722B8
:104730000E94D42270F3959FC1F3950F50E0551F4E
:10474000629FF001729FBB27F00DB11D639FAA27E6
:10475000F00DB11DAA1F649F6627B00DA11D661F35
:10476000829F2227B00DA11D621F739FB00DA11D56
:10477000621F839FA00D611D221F749F3327A00D10
:10478000611D231F849F600D211D822F762F6A2FAC
:1047900011249F5750409AF0F1F088234AF0EE0F11
:1047A000FF1FBB1F661F771F881F91505040A9F73E
:1047B0009E3F510580F00C94AC220C94F7225F3F91
:1047C000E4F3983ED4F3869577956795B795F7957A
:1047D000E7959F5FC1F7FE2B880F911D96958795F2
:1047E00097F908950E948822880B990B08959F3F9E
:1047F00031F0915020F4879577956795B795880F9C
:10480000911D9695879597F90895DF93CF931F9300
:104810000F93FF92EF92DF927B018C01689406C0A8
:10482000DA2EEF010E949823FE01E894A5912591CC
:10483000359145915591A6F3EF010E947F21FE012C
:104840009701A801DA9469F7DF90EF90FF900F913C
:104850001F91CF91DF910895052E97FB1EF40094D0
:104860000E94432457FD07D00E94982407FC03D0E0
:104870004EF40C94432450954095309521953F4F2C
:104880004F4F5F4F089590958095709561957F4F3C
:104890008F4F9F4F0895EE0FFF1F881F8BBF07900C
:1048A000F691E02D19940E945B24332312F48A1BA5
:1048B0009B0B0C946C24A29FB001B39FC001A39FDB
:1048C000700D811D1124911DB29F700D811D112449
:1048D000911D08950E945B24B7FF0895821B930BDE
:1048E00008952A0D3B1D4C1D5D1D6E1D7F1D801FF3
:1048F000911F08952A193B094C095D096E097F092A
:10490000800B910B08952A153B054C055D056E053E
:104910007F058007910708950024A7FD00942A17BA
:104920003005400550056005700580059005089527
:10493000A1E21A2EAA1BBB1BFD010DC0AA1FBB1FA3
:10494000EE1FFF1FA217B307E407F50720F0A21B15
:10495000B30BE40BF50B661F771F881F991F1A9482
:1049600069F760957095809590959B01AC01BD01AC
:10497000CF010895FB01DC0102C001900D9241506E
:104980005040D8F70895DC0101C06D93415050406C
:10499000E0F708950F931F93CF93DF93CDB7DEB762
:1049A0002E970FB6F894DEBF0FBECDBF0E891F89BC
:1049B000888D998D26E02C831A83098397FF02C086
:1049C00080E090E801979E838D83AE01445E5F4F47
:1049D0006A8D7B8DCE0101960E9407254D815E81F7
:1049E00057FD0AC02F813885421753070CF49A01EE
:1049F000020F131FF80110822E960FB6F894DEBF37
:104A00000FBECDBFDF91CF911F910F9108952F92CF
:104A10003F924F925F926F927F928F929F92AF924E
:104A2000BF92CF92DF92EF92FF920F931F93CF939B
:104A3000DF9300D000D000D01F921F92CDB7DEB719
:104A40007C013B018A01FC0117821682838181FF70
:104A5000DDC1CE0101965C01F7019381F30193FD65
:104A6000859193FF81913F01882309F453C18532D9
:104A700039F493FD859193FF81913F01853229F4AB
:104A8000B70190E00E941F27E7CF912C212C312CF9
:104A9000FFE1F31538F08B3211F190F4803209F117
:104AA000833229F137FC3CC020ED280F2A3050F525
:104AB00036FE20C08AE0989E200D1124922E06C05A
:104AC0008D3291F0803371F7689430F8F30193FDE3
:104AD000859193FF81913F018111DACF21C06894C4
:104AE00031F8689432F8F2CF689433F8EFCF6894D5
:104AF00034F8ECCFEAE02E9E200D1124222E68948B
:104B000035F8E4CF8E3229F436FC04C1689436F8C7
:104B1000DDCF8C3619F4689437F8D8CF8836B1F2E7
:104B2000982F9F7D95549330E0F08336A1F1833721
:104B3000C1F1833509F063C02801F2E04F0E511C2A
:104B4000F801C080D180692D70E036FC02C06FEFA3
:104B50007FEFC6010E9409274C01689437F8820153
:104B60000AC00C5F1F4FFFE3F98388248394912CC4
:104B70006501E89437F833FE2DC0522C811491045E
:104B800071F5552009F468CFB70180E290E00E94EA
:104B90001F275A94F6CFF801808189830E5F1F4F3B
:104BA000E4CF2801F2E04F0E511CF801C080D18003
:104BB000692D70E036FC02C06FEF7FEFC6010E94E6
:104BC00014274C018201D5CFB70180E290E00E940A
:104BD0001F272A942814190409F0B0F7CECFF60144
:104BE00037FC859137FE81916F01B70190E00E94FB
:104BF0001F2751105A94F1E08F1A9108BFCF8436C5
:104C000019F0893609F077C0F80137FE6BC0608172
:104C10007181828193810C5F1F4FF32DFF763F2EB0
:104C200097FF09C090958095709561957F4F8F4F44
:104C30009F4F689437F82AE030E0A5010E944F2783
:104C4000C82ECA188C2C432C36FE0CC0E89440F8B1
:104C5000C91440F434FE05C032FC03C0F32DFE7EBF
:104C60004F2E892C44FEAAC0FE01EC0DF11D80815F
:104C7000803309F09CC0242D297E422E842D88701B
:104C8000582E43FCAAC040FEA4C09C2C821418F4E9
:104C90002C0C922C981844FEA6C0B70180E390E03B
:104CA0000E941F2742FE09C088E790E041FE02C033
:104CB00088E590E0B7010E941F27C91408F49FC03F
:104CC000CA94D12C9FEFC91AD90ACA0CDB1CF60171
:104CD00082916F01B70190E00E941F27AC14BD04C0
:104CE000B1F74FCF60817181072E000C880B990BB3
:104CF0000E5F1F4F92CFD32CE894D4F82AE030E017
:104D00008537E1F1232D297FD22E8F36A9F1F0F4DA
:104D1000883551F1F701868197812B960FB6F8946B
:104D2000DEBF0FBECDBFDF91CF911F910F91FF90DE
:104D3000EF90DF90CF90BF90AF909F908F907F903B
:104D40006F905F904F903F902F900895803749F07B
:104D5000883701F7D4FE02C06894D2F820E130E031
:104D60000DC06894D4F8F6CF34FE03C0822F86605D
:104D7000D82E20E132E002C028E030E0F801D7FE72
:104D80000FC060817181828193810C5F1F4FA501EB
:104D90000E944F27C82ECA183D2CE89437F852CFEE
:104DA0006081718190E080E00E5F1F4FF0CF42FC88
:104DB00002C0839463CF8394839460CF842D8678DC
:104DC00009F45CCFF6CFB70180E290E00E941F2784
:104DD00083948214C0F3512C5ECF522C5818821445
:104DE00008F459CFF8CF842D867809F466CF8BE28A
:104DF00041FE80E247FC8DE2B70190E05CCFB70155
:104E000080E390E00E941F279A9457CF8FEF9FEF87
:104E100084CFFC010590615070400110D8F7809557
:104E200090958E0F9F1F0895FC0161507040019076
:104E30000110D8F7809590958E0F9F1F08950F93BE
:104E40001F93CF93DF93182F092FEB018B8181FDE7
:104E500009C01FEF0FEF812F902FDF91CF911F918E
:104E60000F91089582FF14C02E813F818C819D8116
:104E7000281739073CF4E881F981CF01019699831D
:104E8000888310838E819F8101969F838E83E3CFD9
:104E9000E885F985812F1995892BA1F3DACFFA01DD
:104EA000AA27283051F1203181F1E8946F936E7F69
:104EB0006E5F7F4F8F4F9F4FAF4FB1E03ED0B4E05A
:104EC0003CD0670F781F891F9A1FA11D680F791F9B
:104ED0008A1F911DA11D6A0F711D811D911DA11DAC
:104EE00020D009F468943F912AE0269F11243019BC
:104EF000305D3193DEF6CF010895462F4770405D57
:104F00004193B3E00FD0C9F7F6CF462F4F70405D05
:104F10004A3318F0495D31FD4052419302D0A9F760
:104F2000EACFB4E0A6959795879577956795BA955A
:104F3000C9F700976105710508959B01AC010A2E20
:104F400006945795479537952795BA95C9F7620FF7
:0E4F5000731F841F951FA01D0895F894FFCFB6
:104F5E009A089A089A089A089A089A089A089A0833
:104F6E0001020810820385039B03B603C803E40302
:104F7E00F80300000000A2090C093909EF096A09BB
:104F8E0048095C0925352E31660025303258005B04
:104F9E004448542044454255475D20000D0A0053B5
:104FAE00616E69747920636865636B3A2054656D30
:104FBE00703D25662C2048756D3D25660053616E4B
:104FCE0069747920636865636B206661696C6564DA
:104FDE003A2054656D70657261747572653D256613
:104FEE00206F7574206F662072616E676500536165
:104FFE006E69747920636865636B206661696C65A0
:10500E00643A2048756D69646974793D2566206F30
:10501E007574206F662072616E67650052656164FB
:10502E0020617474656D70742025642F256400539F
:10503E0074617274696E672073696E676C65207235
:10504E0065616420617474656D7074206F6E20707C
:10505E00696E202564005261772062797465733A17
:10506E002025582025582025582025582025580021
:10507E00436865636B73756D206D69736D617463E1
:10508E00683A20255820213D20255800726561641C
:10509E003542797465733A204F4B2C2063686563F3
:1050AE006B73756D207665726966696564007265ED
:1050BE0061644F6E636520726573756C743A20255A
:1050CE0073005265616420726573756C743A2025A5
:1050DE0073004F4B0053656E736F72206E6F7420AA
:1050EE00726573706F6E64696E670054696D656F7B
:1050FE0075742077616974696E6720666F722073AC
:10510E0069676E616C00436865636B73756D206DC6
:10511E0069736D617463680054696D656F75742091
:10512E007768696C652072656164696E67206120BD
:10513E006269740053616E69747920636865636B8C
:10514E00206661696C656400556E65787065637480
:10515E00656420696E7465726E616C206661696C3F
:04516E0075726500F1
:00000001FF
